:020000040800F2
:100000001029002001010008AF2600080B0100089C
:100010000D0100080F010008110100080000000098
:100020000000000000000000000000002D27000874
:10003000ED160008000000002B270008B931000869
:100040001B0100081B0100081B0100081B01000820
:100050001B0100081B010008F116000831170008F9
:1000600045170008591700086D1700081B01000804
:10007000091400080F140008151400081B140008C8
:1000800021140008271400081B0100081B010008A8
:100090001B0100081B0100081B0100088117000854
:1000A0001B0100081B0100081B0100081B010008C0
:1000B0001B0100081B0100081B0100083D1B000874
:1000C000371B0008491B0008431B00081B010008E0
:1000D0001B010008054600080B46000811460008F1
:1000E000051700081B0100081B010008DFF80CD0F1
:1000F00000F090FE0048004721470008102900202A
:100100000648804706480047FEE7FEE7FEE7FEE7B1
:10011000FEE7FEE7FEE7FEE7FEE7FEE7F93200084E
:10012000ED00000870B515461946DDE904230446C4
:10013000284600F00AFC84E80F0070BD421C10F84D
:10014000011B0029FBD1801A704730B504460020FE
:10015000034600E05B1C934203D2E05CCD5C401B95
:10016000F8D030BD30B505460020034600E05B1CEA
:10017000934205D2EC5CC85C201A01D1002CF6D168
:1001800030BD10B54843044604F098FF002805D060
:100190000021002C02D0641E0155FAE710BD0000BA
:1001A0000FB400B58DB010A909900B9000914FF0DD
:1001B000FF300A9000200C900548069005480790F3
:1001C0006A4609A80F9900F017FC0DB05DF814FB02
:1001D000150A0008330A00082DE9FF4F1C4681B0BC
:1001E0000021D4E9016791464FF0FF358A468846E1
:1001F000A1696D1C02988847216A834688470028B8
:10020000F6D1BBF1FF3F0CD026F4C066002F1ADDFB
:10021000700615D5BBF12B0F0AD0BBF12D0F0FD1F6
:1002200004E04FF0FF3005B0BDE8F08F46F4806683
:10023000A1696D1C029888477F1E8346002F02DD4E
:10024000BBF1300F03D0B9F1000F2AD025E0A1692E
:100250006D1C46F400767F1E029888478346002F67
:1002600005DDBBF1780F06D0BBF1580F03D0B9F113
:10027000000F10D011E0B9F1000F02D0B9F1100F4A
:100280000BD1A1696D1C26F400767F1E0298884769
:100290008346102000E0082081464FEAE970009074
:1002A00017E00A20F8E74346AAFB092803FB098068
:1002B000DDF800C07F1E0AFB0C0112EB0B0A41EBBC
:1002C000EB78A16946F4007605F1010502988847AC
:1002D0008346002F06DD4946584600F079FB5FEA69
:1002E000000BE0D5E16902988847B00502D46FF0B1
:1002F000010098E7F00718D1700610D57005514637
:1003000005D50023D1EB030163EB080200E0424670
:100310002068031D23600068C0E9001205E0206822
:10032000011D21600068C0E900A828467BE72DE98F
:10033000FF5F1D464FF0FF3BD5E9014691465F4602
:100340004FF00008A9697F1C01988847296A8246F6
:1003500088470028F6D1BAF1FF3F0CD024F4C064DE
:10036000002E19DD600614D5BAF12B0F09D0BAF1B1
:100370002D0F0ED103E0584604B0BDE8F09F44F4C1
:100380008064A9697F1C01988847761E8246002EEA
:1003900002DDBAF1300F03D0B9F1000F26D032E000
:1003A000A969761E44F400747F1C01988847824630
:1003B000002E05DDBAF1780F06D0BAF1580F03D040
:1003C000B9F1000F10D01EE0B9F1000F02D0B9F161
:1003D000100F18D1A969761E24F400747F1C0198AF
:1003E00088478246102002E0082000E00A2081466B
:1003F00009E008FB0908A969761E44F400747F1C13
:10040000019888478246002E05DD4946504600F097
:10041000DFFA0028EDDAE96901988847A00502D4DF
:100420006FF00100A8E7E00725D1600613D560054D
:1004300002D5C8F1000000E0404629680A1D2A6084
:100440000968220501D5087015E0220701D508804A
:1004500011E008600FE02868011D2960006821058F
:1004600002D580F8008006E0210702D5A0F80080C0
:1004700001E0C0F8008038467EE72DE9FF5FD2E951
:1004800001A74FF00008916999461446DDF838B08D
:10049000464601988847054659EA0B0005D009E011
:1004A000A169761C019888470546216A2846884735
:1004B0000028F5D1681C03D05FEACA7005D015E0AA
:1004C0004FF0FF3004B0BDE8F09F2068011D2160AF
:1004D000D0F800800AE05FEACA7001D108F8015B39
:1004E000A169761C7F1E019888470546002F1ADDFA
:1004F000681C18D0B9F1000F0DD0E81705EBD060DB
:10050000421120F01F0059F822102A1A01209040B1
:100510000142E0D107E0BBF1000FDCD1216A28469F
:1005200088470028D7D0E16901988847BBF1000FC0
:1005300007D1002E05DD5FEACA7002D1002188F8DC
:100540000010A068B84203DDBBF1000F03D017B163
:100550006FF00100B6E73046B4E700002DE9FF4F29
:10056000087883B09946FF2805D0491C2D2804D06F
:100570000024002008E000200BE00124F9E700EB54
:10058000800003EB4000491C0B78FF2BF7D104B12E
:10059000404200230293147819461D462D2C01D0A9
:1005A0002B2C04D1521C2D2C13D000240294AA46CB
:1005B0001478FF2C0FD00A25A3FB057801FB0581D9
:1005C0004FF0000C03FB0C11521CE3194AEB010124
:1005D000EEE70124EAE7814453EA010002D019F56D
:1005E000C87F06DA03980021C0E9001107B0BDE812
:1005F000F08F0025AE4E2F46DFF8B882184600F087
:10060000B1FBCDE90001B9F1000002DAC9F1000443
:1006100000E004460023A74A1AEB030B42EB045AFE
:1006200012E0E00707D02A4633463846414600F03C
:10063000B8FA074688462A4633461046194600F05F
:10064000B0FA05460E466410002CEAD1DDE900013F
:10065000B9F1000F5A46534606DA00F014FB3A4649
:10066000434600F010FB05E000F09BFA3A46434693
:1006700000F097FA029A0AB181F00041039AC2E9A8
:100680000001B3E72DE9FF4F1F468DB0D7E90146C2
:100690004FF0FF382E2045464FF000090B90B96906
:1006A0006D1C0E988847396A824688470028F6D123
:1006B000BAF1FF3F0AD024F4D064002E11DDBAF164
:1006C0002B0F08D0BAF12D0F0BD102E0404611B02C
:1006D0008DE744F48064B9696D1C0E9888478246A2
:1006E000761E6946600501D52D2000E02B208DF88F
:1006F000000001F1010B0DF1200809E0B9696D1C42
:100700000E98884782460F9844F40074761E056060
:10071000002E02DDBAF1300FF0D00B998A453ED1A0
:1007200044F0800406E00F99681CA9F1010944F423
:1007300000740860B9696D1C761E0E988847824661
:100740003028F0D02BE00B998A4505D1200603D440
:1007500044F08004761E18E0504604F0E3F808B335
:100760000DF11302761EAAF1300044F40074934593
:1007700006D20BF8010B200607D5A9F1010003E012
:10078000200602D409F101008146A00502D50F9987
:10079000681C0860B9696D1C0E9888478246002E57
:1007A000D1DC53E0002E51DDBAF1650F02D0BAF171
:1007B000450F4BD1A00549D5B9696D1C24F440748F
:1007C000761E0E9888478246002E0CDD2B2804D01A
:1007D000BAF12D0F07D144F48074B9696D1C0E98DD
:1007E00088478246761EE00501D52D2100E02B21A9
:1007F00008F8011BCDF82C8021E00DF12901761EAF
:1008000044F4007488450CD2AAF1300010F0FF00C7
:1008100088F8000002D10B99884509D908F1010830
:1008200006E0E00501D5244801E042F20F70814660
:10083000B9696D1C0E98884782460F980560002E96
:1008400004DD504604F06EF80028D6D1F9690E9800
:100850008847FF208BF8000088F8000000200690F1
:1008600007904B466A4608A906A8FFF777FEA00541
:1008700002D46FF001002AE714F0240F0AD0E00739
:1008800014D1DDE906123868031D3B600068C0E939
:1008900000120BE0DDE9060100F0A0FA0146E007D6
:1008A00004D13868021D3A600068016028460EE7EE
:1008B000000014400000F03FF1D8FFFF30B50B46B8
:1008C000014600202022012409E021FA02F59D4280
:1008D00005D303FA02F5491B04FA02F52844151E54
:1008E000A2F10102F1DC30BD2DE9F05F05460020E8
:1008F00092469B4688460646814640241BE0284691
:1009000041464746224600F0ACFA53465A46C01AC2
:10091000914110D311461846224600F093FA2D1A41
:1009200067EB01084F4622460120002100F08AFAB9
:1009300017EB00094E41201EA4F10104DFDC4846FC
:1009400031462A464346BDE8F09F2DE9F041002498
:10095000061B254671F1000605DA01240027D0EBBD
:10096000070067EB0101161E73F1000605DA002788
:10097000D2EB0702012567EB0303FFF7B5FF8646BD
:100980000E4617469C46AC4204D00025D0EB050E1F
:1009900065EB010624B10020D2EB000760EB030CED
:1009A000704631463A466346BDE8F08140EA0103AD
:1009B0009B0703D009E008C9121F08C0042AFAD215
:1009C00003E011F8013B00F8013B521EF9D27047D9
:1009D0003A2800D2303820F02002412A01D3A2F177
:1009E0003700884201D34FF0FF307047026811444E
:1009F0001378016018467047D16004495161044979
:100A0000116200211161114600F052BAED0900088F
:100A1000A70E0008426842B1016811F8013B23B1FA
:100A2000521EC0E90012184670470121C160881E9D
:100A3000704742685AB1C368016843B983688B4202
:100A400005D0491E521CC0E90012002070474FF02B
:100A5000FF3070472DE9FE4F804681EA0300C00F4A
:100A60000C46009021F0004123F00045B8EB020055
:100A7000A94105D24046214690461C460B460246F7
:100A800023F00040104347D0270DC7F30A00C3F3FB
:100A90000A510290401A019040286BDAC3F3130008
:100AA00040F4801B0098924620B10023D2EB030A49
:100AB00063EB0B0B01985946C0F14002504600F021
:100AC000C1F906460D4650465946019A00F0D9F93B
:100AD00010EB08006141002487EA115284EAE773B1
:100AE0001A4340D0009A62B3019A012A4FEA075292
:100AF00015DC001B61EB02014FF0004202EA0752D5
:100B0000CDE90042001C41F5801132462B4600F031
:100B1000ABFB03B0BDE8F08F40462146F9E7001B70
:100B200061EB0201001C41F5801300185B412018A5
:100B3000A2F5001747EB030140EAD570B6196D41E5
:100B400011E06D084FEA360645EAC0754FEA0752D4
:100B5000001B61EB0201001C41F5801149084FEABE
:100B600030000019514132462B4603B0BDE8F04F2A
:100B700000F06BBB0098012240000023D0EB020282
:100B800063EBE073009821464FEAE074B8EB000095
:100B900061EB0401E9E783F000435BE781F000418A
:100BA00058E72DE9FE4F81EA030404F0004421F0E8
:100BB000004100944FF0000B23F0004350EA010481
:100BC0005ED052EA03045BD0C3F30A54C1F30A5562
:100BD0002C44A4F2F3340194A0FB0254C1F313019A
:100BE00041F48011C3F3130343F4801301FB024467
:100BF00000FB034E840A970A44EA815447EA83576C
:100C0000A4FB076802958D0A05FB07854FEA932C24
:100C100004FB0C542705029D4FEA065847EA163795
:100C2000B5EB08056EEB070C870E920E47EA8117AD
:100C300042EA8312A7FB0201B6EB0B0164EB00044E
:100C40002B0D43EA0C335E1844EB1C50DA46514638
:100C5000E7FB0201C5F313044FEA0B3343EA1453D5
:100C60004FEA0432019C43EA0603A4F10C04029407
:100C7000009CCDE900B400F0F7FA03B0BDE8F08FB6
:100C800000200146F9E72DE9F04D81EA030404F064
:100C9000004B21F0004514464FF0000A23F00041BC
:100CA00050EA050220D054EA01021DD0C5F30A57CC
:100CB0000246C5F31303C1F31300C1F30A5640F40F
:100CC000801543F48013A7EB0608101BD64608F2E4
:100CD000FD3873EB050002D308F1010801E092181A
:100CE0005B41B8F1000F03DA00200146BDE8F08D4A
:100CF00000204FF48011064684460EE0171B73EB6C
:100D0000050705D3121B63EB050306434CEA010CF0
:100D100049084FEA300092185B4150EA0107EDD1D3
:100D200052EA030012D082EA040083EA0501084374
:100D300005D0101BAB4106D20122002306E00022A1
:100D40004FF0004302E06FF0010253101AEB06006F
:100D50004CEB085110EB0A0041EB0B01BDE8F04DE4
:100D600000F073BA0EB540F2334202920022CDE990
:100D70000022134600F078FA03B000BDC1F30A5216
:100D8000C1F3130140F2FF3341F480119A4202DAB9
:100D900000200146704740F233439A42A2F23342A8
:100DA00002DC524200F05DB800F04CB830B5041ED1
:100DB00071F1000404DB4FF00044404264EB010198
:100DC000141E73F1000405DB1C464FF00043524231
:100DD00063EB0403994208BF904230BD01F0004329
:100DE00030B421F0004150EA010206D00A0DA2F50C
:100DF0006072C1F31301002A02DC30BC002070478E
:100E0000440F44EAC104C100E01830BC00EBC250FA
:100E100000F0E4B91CB50948009009480190054666
:100E2000009C06E0E06840F0010394E80700984762
:100E30001034AC42F6D3FFF75DF90000F45300081C
:100E400014540008202A04DB203A00FA02F10020A2
:100E500070479140C2F1200320FA03F319439040F8
:100E60007047202A04DB203A21FA02F00021704763
:100E700021FA02F3D040C2F1200291400843194602
:100E80007047202A06DBCB17203A41FA02F043EAEA
:100E9000E07306E041FA02F3D040C2F12002914033
:100EA000084319467047C0B24FF4F05100F02ABA17
:100EB0002DE9F34F8BB04FF0000801F10C000C4608
:100EC0004FF0010B46460DF1080A019062690121BD
:100ED00001989047051E2DD0252D2CD0216A8847DA
:100EE000C0B16269012101989047216A88470028B2
:100EF000F7D1411E62690198904700E0761CA16914
:100F00000B988847216A88470028F7D1E1690B9838
:100F10008847DBE7A1690B9888470746A84201D1BB
:100F2000761CD3E7E1690B9888477F1C02D1B8F1A2
:100F3000000F6FD046E1002762693D4639460198AF
:100F400090472A2804D16269012101989047012520
:100F5000DFF884926269012101989047A0F1300185
:100F60000A290AD24F45E5DC07EB870100EB410770
:100F7000303FDFD445F01005ECE7E90601D46FF00F
:100F800000476C280AD04C2814D0682815D06A284D
:100F90000DD074281CD07A281AD01DE06269012176
:100FA000019890476C2802D045F0040514E045F004
:100FB00002050DE045F020050AE062690121019873
:100FC0009047682802D045F0080505E045F4006523
:100FD0006269012101989047C4E9015765283DD015
:100FE00019DC58287AD00CDC452837D004DC2528B9
:100FF00026D0412831D131E046282FD047282CD1A6
:101000002CE05B2877D0612828D063287CD0642826
:1010100023D15AE0D0E06F2848D008DC66281DD0E4
:1010200067281BD0692821D06E2816D127E07028A8
:1010300045D0732868D0752847D078280DD14DE069
:10104000A1690B988847054625283FF469AFE169F7
:101050000B9888476D1C3FF46AAFB3E023466A469D
:101060006FF001000B99FFF70DFB9EE045F040008B
:101070006060A80723464FF0000236D43EE0E80740
:101080007FF447AF2068011D21600068290501D564
:1010900006701BE7290701D5068017E7A90703D5C6
:1010A000F117C0E9006111E706600FE745F0400065
:1010B0006060A80723464FF0080216D41EE040F6F1
:1010C0000E0125EA0100606016E045F04000606016
:1010D000A80723464FF00A0207D40FE045F040006E
:1010E0006060A80708D5234610226FF001000B9915
:1010F000FFF772F859E007E0234610226FF0010075
:101100000B99FFF714F950E04FF000094F464B469A
:10111000632802D05B2806D040E0E80601D4012015
:10112000A06001273AE062690121019890475E289A
:1011300005D14FF00109626949460198904721693C
:1011400039B900210A46534643F82120491C082991
:10115000FADBB0B3216969B9C11700EBD162531151
:101160000AEB830122F01F02821A01200B689040D3
:1011700003430B6062690121019890475D28E8D123
:10118000B9F1000F09D00020514651F82020D24378
:1011900041F82020401C0828F7DB02AB22460097CC
:1011A0006FF001000B99FFF768F900280CDA401C7A
:1011B00008D1BBF1000F05D04FF0FF300DB0BDE8F6
:1011C000F08FFFE74046F9E7E90701D108F1010890
:1011D00006444FF0000B79E6CCCCCC0C0029A8BF1C
:1011E0007047401C490008BF20F00100704710B450
:1011F000B0FA80FC00FA0CF050EA010404BF10BC05
:10120000704749B1CCF1200421FA04F411FA0CF131
:1012100018BF012121430843A3EB0C01CB1D4FEA6A
:1012200000614FEA102042BF002010BC704700EB65
:10123000C35010440029A4BF10BC7047401C490093
:1012400008BF20F0010010BC704710B5141E73F1E8
:10125000000408DA401C41F1000192185B411A4376
:1012600001D120F0010010BD2DE9F04D92469B46C2
:1012700011B1B1FA81F202E0B0FA80F22032904668
:10128000FFF7E0FD04460F4640EA0A0041EA0B0181
:1012900053465A46084313D0114653EA010019D069
:1012A000C8F140025046FFF7DCFD05460E465046A9
:1012B00059464246FFF7C6FD084305D0012004E029
:1012C00020463946BDE8F08D0020054346EAE07629
:1012D0002C4337430A986305E40AA0EB0800002278
:1012E000FD0A44EA47540A3002D500200146E9E7E6
:1012F000010510196941DDE9084500196941BDE89A
:10130000F04DA2E77F2801D9002208E0064A02EB4F
:101310005002C007127800D1120902F00F0201201A
:10132000904008407047000058510008D2B201E0D8
:1013300000F8012B491EFBD270470022F6E710B5DA
:1013400013460A4604461946FFF7F0FF204610BD33
:101350001CB50C460021019101A900F072FA206031
:1013600001981CBD1CB50C460021019101A900F09B
:1013700063FA206001981CBDF8B500250C460646AE
:101380006F4600953079B18901FA00F001280CDB35
:101390003046394600F050FA009D18B915B101F0F9
:1013A00094F9EFE70128A8BF20602846F8BD012A7C
:1013B000BCBF6FF01C00704710B540698489037989
:1013C00004FA03F3012BBDE81040BCBF00207047B6
:1013D00000F076BAB0B504468089E388181A2379FC
:1013E0009840824202DD6FF018050BE0204600F0C5
:1013F000D3FA0546E089C00704D020460021002228
:1014000000F0CAFA2846B0BD012002F025BE022035
:1014100002F022BE032002F01FBE042002F01CBE18
:10142000052002F019BE062002F016BE81071CBF7F
:10143000002070476421B0FBF1F202FB110109B1F9
:10144000012070474FF4C871B0FBF1F202FB1100AC
:10145000B0FA80F0400970472DE9FE4358B3B0F967
:1014600006508046A5F2B27080B281281FD898F845
:101470000500411E0B291AD895490228014411F98B
:10148000014C03D12846FFF7D1FF044498F804002B
:1014900010F01F000BD0844209DBD8F80010880F31
:1014A000022804D801F0F060B0F1F06F6BD16FF05A
:1014B0001E00BDE8FE83DFF8EC8040F2E97005B263
:1014C000002740F2B276AE420BD23046FFF7AEFFB5
:1014D00000284FF4B77008BF40F26D100744013682
:1014E000F1E798F80500DFF8E89100240138C6B26A
:1014F000A64210D019F9040007442846FFF796FFCA
:10150000002818BF0120611E0134B1FA81F1490998
:1015100008400744ECE76B4998F80420D8F800002D
:101520006D46D1E9023402F01F023A44C5E90034A5
:101530001C4B022402EB4202984508BF01241A4BBF
:10154000D200002602EBD0621C70C0F345534FF46A
:101550007A74C2EB021203EB8202C0F3C533A2F528
:10156000B462C2EB021203EB8202C0F34913002003
:10157000E2FB0436D5E900249A1A66EB0403C1E9BC
:101580000023BDE8FE8301F4F0126FF01E00B2F5F7
:10159000F01FF6D001F4FE41090A7C29F1D8A8B267
:1015A0008DE700BFA05200086C0000202DE9F04735
:1015B0008AB0884628B1D0F8009002794179C58870
:1015C00067E040484FF47A75D0E9021206ABC3E9F0
:1015D00000120022D3E9001311C8CDE900520A1805
:1015E000634106A8FEF79EFD06994FF4616018233B
:1015F000089A364E40F2B275B1FBF0F0B0FBF3F34F
:1016000003EB4303A0EBC3003C23B1FBF3F4B4FBB7
:10161000F3F3C3EB0313A4EB8303A4EB041401EB78
:101620008404E40362F34E1444EA435242EAC0697C
:101630002548B1FBF0F4B4F5B67F0EDD2846FFF780
:10164000F5FE20B16008B628304602D804E06FF4F9
:10165000B67004440135EEE70135DFF874A02EB210
:1016600000271C2C13DB3046FFF7E0FE0028F8B201
:1016700005D0012803D11D2C08DB1D3C04E01AF91C
:101680000000844203DB241A0137EAE70127621CC9
:10169000791CC9F34910C9F3C533C9F345544FEA5E
:1016A000D96602F01F02CDE90026CDE9024304907D
:1016B000CBB22AB207A1404603F04EF840460AB02A
:1016C000BDE8F087004F00208051010092FEFFFF2F
:1016D0001053000825642D25642D25642025643AC7
:1016E00025643A25642E2564000000007047000040
:1016F0002E480168C90708BF70470121016000201A
:1017000002F0C0BD70B5294D0A240126102C0AD064
:10171000296806FA04F0014203D02860204602F04E
:10172000B1FD0134F2E74FF47C40286070BD00BF8A
:101730001E480168890758BF7047022101600120D7
:1017400002F0A0BD19480168490758BF704704213D
:101750000160022002F096BD14480168090758BFD5
:10176000704708210160032002F08CBD0F4801681A
:10177000C90658BF704710210160042002F082BDE5
:1017800070B50A4D052401260A2C0AD0296806FAEC
:1017900004F0014203D02860204602F073FD0134BA
:1017A000F2E74FF47870286070BD00BF1404014068
:1017B000002080F311887047102080F31188704753
:1017C000838903B3F0B50479B0F808E000F110059F
:1017D000E4B10EFA04F6F44677463544154E0D6032
:1017E0004589754598BFC588754588BFAC460021B9
:1017F000AF4216D2FB43013746EA4303C35A1944AA
:10180000E340F5D10EE06FF00D0110E005EB0E04A2
:101810000C604189714538BFC188A1EB0E000146BB
:1018200002E06746A7EB0E001060BDE8F0400846F6
:10183000704700BF0000FEFFE0B501AAFFF7C0FF40
:101840008CBDC2888389934224BF6FF00E0070471D
:10185000B0B50379448904FA03F5054400891035CD
:1018600084420D6038BF0246101B9840B0BD01791C
:101870008089884070474FF480210022C0E902210E
:1018800000207047B0B5044605784088032200FA6E
:1018900005F102EB4000002D18BF20F003054819A8
:1018A00000F110010120FEF76CFC28B10349415101
:1018B000216828444160B0BD0020B0BD98510008A7
:1018C0002DE9FE4F90F8048017468B4682464FF074
:1018D000000900250020019002A9504601AAFFF747
:1018E0006FFF019C2CB30646B84209DD9AF804004C
:1018F0004FF0FF3127FA00F401FA00F007403E46AE
:10190000BBF1000F06D0029958463246FFF74EF859
:10191000B34401E04FF0000B50462146354400F03F
:10192000E9F804FA08F0A144864202D3BF1B002F55
:10193000D0DCBAF80C0058B1BAF80800C0433AF845
:10194000100028B95046012100F0D4F809F101092E
:1019500009FA08F0281AB0FA80F04009B8F1000F2F
:1019600018BF4FF001089AF80E1000EA080001F0C5
:10197000FE0108448AF80E002846BDE8FE8F50B1EB
:10198000017902228A40033222F00302002918BFA3
:10199000801A03F06BBB70472DE9FE4F0546884661
:1019A0008089E9882C79081AA040824224BF6FF010
:1019B0000B00BDE8FE8F4FF0000B9246002C08BFD5
:1019C0004FF0FF3B00920194284602A9FFF739FF30
:1019D0005045814608BF0BF1010BA8BFD146B8F1B5
:1019E000000F06D0029841464A46FEF7DFFFC84482
:1019F00001E04FF00008DCB128790121EA884C466B
:101A000081406889A5EB4203C04305EB40060020F6
:101A1000A1424FF0000728BF2146318001309E428D
:101A200008BF174606EB4706023E641AF0D100E0F5
:101A30004846EFF31081EFF3108272B66B89AAEB80
:101A4000090AAA8902441844EB8884B2AA819C42FC
:101A500028BFC01A688190B298424FF0000028BF9A
:101A60000120AA7BBAF1000F02F0F90242EA40001D
:101A7000A87381F31088019CA6DC0020BBF1000F45
:101A8000C8BF0120A97B01F0FE010844A87300989B
:101A9000A0EB0A00BDE8FE8F0146808970B10A798B
:101AA0006AB1F0B50B8901204C8900FA02F2D843E3
:101AB00001EB4005A34203D200200EE00020704756
:101AC000CE880020B34206D22F883844BA420ED8BE
:101AD0000133023DF6E78D1E0023A34206D229887A
:101AE00008448A4203D80133023DF6E70020F0BDE6
:101AF000C089704770B5EFF31082EFF3108372B6B0
:101B0000C58883895C1A848104890C4489B2A6B291
:101B1000AE4228BF641B0481591A837BB1FA81F15C
:101B2000490903F0F90343EA8101817382F31088C4
:101B300070BD00F0BDBD002000F070B9002000F0C5
:101B400085B9012000F06AB9012000F07FB90000DA
:101B500001464E48006820B110F8142C8A42F9D191
:101B600000E00020002818BF1C38704713460A46C2
:101B700041680384007A00F00F0002F037BC8069EE
:101B8000FFF7E6BB042142694FF480230173002173
:101B9000C2E902138269C2E90213AB4A007A00F07B
:101BA0000F0052F82000426822F40072426042683E
:101BB00022F480624260426822F48072426082694C
:101BC000920703D5026842F40042026001600020DF
:101BD000704700BF70B5044600F11C012B4800F0AF
:101BE000DFFB0025002656B96069256108B1FFF7C3
:101BF000C6FEA06908B1FFF7C2FE043EF3E770BD60
:101C000000207047017A904A01F00F0152F821102C
:101C10008969890754BF007B052040B2704700BF27
:101C20002DE9FF41064618480F46144606F11C08E8
:101C300003901648414600F09BFB10B13046FFF779
:101C4000C9FF1FB903A8CDE9010001AF0425043D78
:101C500011D17069346120B93868FFF713FE7061E3
:101C600038B1B06918B97868FFF70CFEB061002888
:101C7000EDD1E22004E00548414600F05DFB002084
:101C800040B204B0BDE8F08105000100680000200A
:101C900010B50446007A00F00F01032905D805A00D
:101CA00005A2405C52F821108847022020730020D2
:101CB00010BD00BF01000000000000000000000097
:101CC0004069FFF74FBB00002DE9FC414669904693
:101CD000054666B13079B28902FA00F0002806DDC7
:101CE0002846424602B0BDE8F041FFF760BB287AC3
:101CF000CC4900F00F0051F82000806980071FD404
:101D000001AC30462146FFF79CFD07460F3001D15C
:101D100000F0DBFC012FF4DB6968019A287A8978EE
:101D200000F00F004900013111704745B8BFB846B7
:101D30006968434602F05AFB6FF01E00BDE8FC8163
:101D400095F8220040F0010085F822006FF01A009B
:101D5000BDE8FC81406928B1044B034A002918BF43
:101D60001346184700207047991A00086F1800089A
:101D7000B0B5007A0C4600F00F05AA4850F82500CF
:101D80008169890744BF6FF01A00B0BD214602F097
:101D9000D5FA05F12000FFF7DBFE28B1016919B182
:101DA0004A690AB1214690470020B0BD7CB5012A9E
:101DB000019216DB00F0ADFC9A49044606F00F00D4
:101DC00051F82000806980070ED4A86901A9FFF7A7
:101DD000D3FA019A012A10DB01462846FFF7C6FE16
:101DE00014E06FF01C0411E095F822006FF01A0463
:101DF00040F0020085F8220008E00548114602F094
:101E00009BFCB4F1FF3FC8BF6FF0170420467CBDB8
:101E10006A530008806900F04BBC0000B0B58149EE
:101E200051F82040022161F31F106569FFF790FE11
:101E300030B1016921B10A6912B1C5F30621904799
:101E40006069A8436061B0BD985200082DE9FE4F5B
:101E50000446744850F824707D69B869E80730D1A9
:101E6000B869400740D4A80700F1A0806E4800EB95
:101E7000C402134632F804CB33F8020F7D696D06B5
:101E800040F1BC8085B2ACEB0505032D09D0022DD5
:101E90000FD17D696D0740F1A7803D6845F400755D
:101EA00006E07D696D0740F1A4803D6825F48065FA
:101EB0003D603D6916680130711C116035701880F5
:101EC000DCE7594D05EBC400014651F8042F1378A7
:101ED000DE077BD035F83440032C72D0022C75D14C
:101EE0003B6823F480636FE0DFF83CB102202146B9
:101EF00060F31F110BEBC4005FFA81FA00F10408D4
:101F000000F102093BF83400B9F8001081422ED2EA
:101F100015F080022BD0D8F800200131531CC8F8EE
:101F20000030814292F900203A61A9F800107D69E1
:101F3000E8D3786820F4806078605046FFF708FEA8
:101F40000028DFD00646008C6A460090304601A982
:101F500001F05EFF009901283184D3DB01982BF852
:101F60003410C8F800000020A9F80000CAE768078C
:101F700055D5386840F400703860786820F44070B7
:101F800078605046FFF7E4FD002848D00446002062
:101F90000290A06902A9FFF7EFF9029A012A3EDB3D
:101FA00001462046FFF7E2FDBDE8FE8F1E4830F8EF
:101FB0003400032813D0022831D1386840F400706F
:101FC00010E03B6843F400633B60137801320A6021
:101FD00059B23961418801314180BDE8FE8F3868CE
:101FE00020F4806038601AE057F8042F520501D4BD
:101FF00004E00437396821F48061396085B2AC456A
:102000000DD8022060F31F142046FFF7A1FD30B168
:102010002946002203B0BDE8F04F01F0D3BEBDE871
:10202000FE8F00BF98520008A000002081B00B492D
:102030000A6802430A60096808400090009801B0ED
:10204000704700BF81B005490A6802430A60096809
:1020500008400090009801B0704700BF181002407F
:102060002DE9F04FB1F801A001F1040840F2011C84
:102070004FF0011B4FF00F0E9AFAAAF2B2FA82F457
:102080003AFA04F208BFBDE8F08FD2074FD0B4F19E
:1020900008020BFA02F242F0806538BF0CFA04F530
:1020A000D8F80060082E11D14FEA152CC268D1F87B
:1020B00010909CFAACF740F2011CB7FA87F722EABD
:1020C000152209FA07F73A43C26002E0092E424698
:1020D0000AD8B2B240F2133323FA02F215A3D207A0
:1020E000424618BF03EB86022E0E95FAA5F512683C
:1020F000B5FA85F53758AD000EFA05F3AA4027EA80
:1021000003031A433250D8F8003043F00803092B78
:102110000DD18B680327AF40AB40BA431A43042369
:102120008251AB409A43CB68AB401A438251013491
:10213000A6E700BF00000000010000000000000052
:10214000000000000400000000000000000000008B
:102150000000000008000000090000001A490A6899
:1021600002F00C02082A04D0042A0CBF184A174AAD
:1021700010E00A68D20301D4164A06E00A68144B3C
:10218000C2F340420132B3FBF2F20B68C3F3834364
:1021900002335A4310B502600FA40B68C3F3031354
:1021A000E35C114CDA4042600B68C3F30223E35C4A
:1021B00022FA03F383600968C1F3C221615C22FA49
:1021C00001F1C16010BD00BF0410024000127A008E
:1021D000001BB70000093D000000000000000000E7
:1021E000010203040607080990520008B0B5204A0E
:1021F00003684C68904221D0B0F1804F0BD01D4D48
:10220000A84208D01C4DA84205D01C4DA84202D0BF
:102210001B4DA84202D123F070032343B0F1804F3D
:102220000FD0144CA0420CD0134CA04209D0134C38
:10223000A04206D0124CA04203D006E023F0700367
:102240002343CC6823F440732343036090428B689C
:10225000C3620B88836203D002F50062904201D111
:1022600009690163416941F001014161B0BD00BFED
:10227000002C0140000400400008004000340140F0
:10228000000C00407FB50D4604468968D5E904205E
:10229000E3689B0448D4E36841F20C66B3436E687C
:1022A0003343EE6833436E461A43E260226922F4F8
:1022B000405211432161616921F44071084360611A
:1022C0003046FFF74BFF194884420DD01848A1054E
:1022D000204441EA9020032826D8DFE800F00202DB
:1022E000020206F1080001E006F10C000068D8B116
:1022F0002968C9B1192289000E4B5043B0FBF1F097
:102300006421B0FBF1F202FB0300322303EB001067
:10231000B0FBF1F000F00F0100F0F00000EB021054
:1023200080B20844A060A0687FBD00BF00380140B3
:1023300000BCFFBF9CFFFF0F026872B1104612681D
:10234000002AFBD1EFF31082EFF3108372B6016025
:102350000020086082F310887047EFF31082EFF3DB
:10236000108372B601600020086082F31088704705
:102370000068884218BF0028FAD1002818BF012041
:10238000704770B515460E46044624682CB12046A9
:102390003146A8470028F8D000E00024204670BD50
:1023A00002688A420FD0104612685AB18A42FAD1A6
:1023B000EFF31081EFF3108272B6026812680260C8
:1023C00081F310887047EFF31081EFF3108272B63B
:1023D00002681268026081F310887047F8B51D48E2
:1023E00000234FF0FF354FF4804700F07BF9006881
:1023F00000F0010000900098A8480168C1F3022194
:10240000CA1E81F0070138BF1A460424042928BFD8
:10241000214605FA01F1032626EA010191400A014D
:102420000D490A700D4A17600068C0F30220C71EEC
:1024300080F0070038BF1F46042838BF044605FA5D
:1024400004F026EA0000B840000148704FF4004054
:102450001060F8BD141002400EE400E000E100E05E
:1024600080B52020FFF7E2FD0420BDE88040FFF7A3
:10247000DDBD704770B58EB000262F480C960596CE
:10248000016841F480110160006800F480100D9033
:102490000D983020FFF7D6FD0320294C04960390B9
:1024A000092002902548019001AD04F540402946DD
:1024B000FFF7D6FD0120294605900820029040F242
:1024C0000440019004F54440FFF7CAFD73484FF003
:1024D000FF3200F000F938BF3146042828BF04203D
:1024E00002FA00F0022222EA0000884015490001A9
:1024F00008706C484FF400110160E06820F400504F
:10250000E0600C200B96CDE90766CDE909604FF439
:102510006120069006A92046FFF7B4FE206920F44A
:1025200090402061606920F02A006061E06840F41A
:102530000050E0600EB070BD1C100240100010048E
:102540000050004035E400E0704770472DE9F0434B
:102550008DB04D4900270868884620F40050086077
:102560004FF480400597FFF76DFD04200424FFF72A
:1025700069FD0320454E04970390092002900196BF
:10258000434801AD29468146FFF76AFD01202946EF
:1025900005900820029006F1021001904846FFF7CE
:1025A0005FFD3C483C4942690A404261426922F46D
:1025B00040524261426922F020024261426922F0A7
:1025C00040024261426942F080024261426922F463
:1025D00040724261426922F44062426102681140E5
:1025E00010310160016821F440510160016821F05F
:1025F00020010160016821F040010160016841F0A3
:1026000080010160016821F440710160016821F4DA
:1026100040610160214800F05EF838BF3946042867
:1026200038BF04464FF0FF30A040022222EA0000EB
:1026300088401B49000108701A48202101600C20C5
:10264000CDE90B77CDE90777CDE909704FF4E1309B
:10265000069009F5405006A9FFF714FED8F80400CB
:1026600020F49040C8F80400D8F8080020F02A00B0
:10267000C8F80800D8F8000040F40050C8F800007E
:102680000DB0BDE8F08300BF0C3801400200020429
:102690000008014044000240EFBFFFFF0CED00E0E6
:1026A00025E400E004E100E0704770477047FEE772
:1026B0008189C2880079511A01FA00F07047DBF86D
:1026C000040001680A6929461047304600214FF688
:1026D000FF72FFF7F5B80068C0F30220C11E80F05A
:1026E00007007047016841F0010101607047002157
:1026F00001223047DBF814008388016800F10802EA
:1027000058467047CA688968C3E90012D3E90012C5
:1027100070470546067A8069FEF75CBE013A03F011
:10272000180102F007021144704770477047806932
:10273000FEF70EBE1CB541694FF480220023C1E9AB
:1027400002328169C1E90232007A00F00F04042CE0
:102750002AD809D0C64850F8240001F09DFCC14891
:1027600050F8240001F098FCBC4850F8240001689F
:10277000019101994168019101996FF04001016057
:10278000C16821F04001C160C16841F01001C16021
:10279000416921F040014161416921F080014161BD
:1027A000C16821F40051C16000201CBD70B5044611
:1027B00000F11C016048FFF7F3FD0025002656B923
:1027C0006069256108B1FFF7DAF8A06908B1FFF781
:1027D000D6F8043EF3E770BD01465748006820B1C3
:1027E00010F8142C8A42F9D100E00020002818BF0C
:1027F0001C3870477FB56D46067A0C462846FFF7B1
:10280000ADFC06F00F00411E042902D205F10801BB
:1028100003E0002843D105F10C01F34A52F82000EF
:10282000826813041ABF0968B1FBF2F100216160EC
:102830000522C168C90458BF0422637803F0F80177
:1028400011446170C56805F4C065B5F5C06F06D068
:10285000B5F5806F07D055B901F01D0106E0FFF70F
:102860005DFF203102E0FFF759FF403161700069E0
:1028700000F44050B0F5405F06D0B0F5005F07D0DF
:1028800050B901F0E70006E001F0E700083002E08F
:1028900001F0E70010306070002004B070BD01202E
:1028A000FBE700BF007A00F00F0004280AD8CE49E9
:1028B00051F82000C06880044FF0020058BF4FF06C
:1028C000FF3000E0FF2040B2704700BF2DE9FF411C
:1028D000064618480F46144606F11C080390164891
:1028E0004146FFF745FD10B13046FFF75FFF1FB9C6
:1028F00003A8CDE9010001AF0425043D11D17069A1
:10290000346120B93868FEF7BDFF706138B1B06935
:1029100018B97868FEF7B6FFB0610028EDD1E22063
:1029200004E005484146FFF707FD002040B204B02F
:10293000BDE8F08108000400640000202DE9F047A4
:1029400081464768007A884600F00F05042D32D290
:102950003AA04FF0000A50F8251000208847A248FE
:10296000414A50F825406FF0400020603C48B9785B
:102970004B1E02EBC10118BF03467448261D3246A8
:1029800050F8250001F0F2FA6069384B394A40F0FE
:10299000400060613648F978002918BF534650F866
:1029A000250002EBC101324601F0E0FA606940F017
:1029B0008000606110E023D11E480021C0E90C11A5
:1029C00081630020FFF756FD1B4C6FF04000206034
:1029D000E06820F04000E060E068394620F40050F4
:1029E000E060284601F094FDB878E16821F010011C
:1029F000002808BF1031E160E06840F40050E0605A
:102A0000B8F1000F05D0D8F8001011B1284601F038
:102A10007FFD042D05D8744850F82500C068800457
:102A200001D4EB2003E0484601F096F9002040B2C3
:102A3000BDE8F087B0000020005000404D250008A0
:102A4000A9260008AB260008732400087524000896
:102A5000AD260008492500084B250008E052000873
:102A600025440008705200085052000859440008DC
:102A700080520008605200084069FEF773BC012ACA
:102A8000A8BFFEF794BC6FF01C0070472DE9F84317
:102A90008146406888468078012847D199F8080027
:102AA000D9F81460042818D2284A2749032808BFF7
:102AB00001F58061072352F8202092FBF3F3C3EB6A
:102AC000C303D21A02EB820201EB82019A4A4968DF
:102AD00002EB4000008D401A07E005D119489649E5
:102AE000008E098E081A00E000203179012280B2A0
:102AF00002FA01F1728989B201FB1207B7B1B7F18D
:102B0000FF3F02DCF08801FB00773468A3683046A1
:102B100000213A46984705460C3005D1E368304617
:102B200000214FF6FF729847002DEFD4084809495D
:102B3000B8F1000F18BF0146D9F81400BDE8F843FA
:102B4000084700BFB0000020080002407052000893
:102B5000991A00086F1800080284007A00F00F002C
:102B600001F0A0BC70B5007A0C4600F00F063046AC
:102B700001F0CEFC05463046FFF72EFE28B1016974
:102B800019B14A690AB121469047284670BD000034
:102B90007CB5012A019218DBFFF7BBFD044606F065
:102BA0000F00042805D8104951F82000C0684006DD
:102BB00017D4A86901A9FEF7DFFB019A012A07DBF8
:102BC00001462846FFF7C8FF0BE06FF01C0408E041
:102BD0000648114601F0B0FDB4F1FF3FC8BF6FF0E9
:102BE000170420467CBD00BFE05200086A5300086D
:102BF0008069FFF75DBD2DE9F047C0B082464068AF
:102C00001C4690460E4690F90400002808D4304631
:102C100041462246FDF799FAE0B16FF02E001AE026
:102C20004FF48075E946012C14DBA542A8BF254668
:102C3000DAF804004A462B4601684F683146B84727
:102C4000484641462246FDF780FA0028E5D1641B3C
:102C50002E44E8E7002040B0BDE8F087B0B5364824
:102C6000002400F110052D6835B1284600F006F863
:102C7000002818BF0134F6E72046B0BD10B5044661
:102C8000806800B1874661690868A0B32A4A9268E3
:102C900012B18988FEF790FD207B10B16FF01D0006
:102CA00010BD012061692073606809680268D268FC
:102CB000904760686169026809681269904710B1BD
:102CC0001348A0601EE000202073606983880168BB
:102CD00000F1080220469B0800F03EFAB0F1FF3FE9
:102CE0000CDD6069002101601349896819B1818890
:102CF0000020FEF75DFD0020A06010BD0E480349D6
:102D0000806901606FF0030010BD00BFCA2C00088D
:102D1000B22C0008014608481030006848B14268EB
:102D2000D3688B42F9D812691A448A4288BF704727
:102D3000F3E70020704700BF10000020B0B5044644
:102D4000007B10B16FF01D00B0BD012020736068E2
:102D500005686D68A84700212173B0BD20B32DE937
:102D6000F04FCDB090460E460546FFF7D3FFE8B1D1
:102D70008346F6B1DBF80400012281798A40904550
:102D8000CDF8048050DADBF814201368AB4205D884
:102D9000928808EB05041A44944245D39BF80C2012
:102DA000CAB16FF01D023CE0FFF758BF6FF01E0480
:102DB000ABE19BF80C0010B16FF01D04A5E1012000
:102DC0008BF80C00FFF77BFC0024002840F09D816D
:102DD0008BF80C4099E101214FEAC807B1468BF806
:102DE0000C10C068281AC4006FB1DBF8040032462A
:102DF00001684B6921469847012805DB06EBD006A0
:102E000004443F1AF0E70027FFF759FC0028FBD1E4
:102E10000020A8EBD7024E468BF80C00DBF804002C
:102E20008179A8EB020816444FF0FF32C0790DF10A
:102E3000340A02FA01F10391C9430791012101FA11
:102E400000F0059001380490B8F1010FC0F24781FD
:102E50000498059928400F1A4745A8BF4746DBF854
:102E600014000168002959D0A94222D882880A4456
:102E7000AA421ED9541BBC4228BF3C469BF80C20DA
:102E8000002A40F03A8128440122401A8BF80C2095
:102E9000314622460830FDF789FDFFF710FC10B9D6
:102EA00000208BF80C00002C01DD2746E1E040F00B
:102EB0002681A748806828B1DBF814008188006863
:102EC000FEF77AFC9BF80C00002840F00C810120F2
:102ED000DBF814108BF80C00DBF8040009680268BA
:102EE000D2689047DBF80400DBF814100268096828
:102EF000126990470028F5D100208BF80C00FFF7ED
:102F0000F9FB9B0800F028F9002803D4FFF7F2FB37
:102F1000FFF771FEDBF8140000210160CDE90A869D
:102F200045EA07002A4607990842394607D007981C
:102F3000039905EA01022844801A38440140DBF86D
:102F400004900C920997089199F80500FF2801D088
:102F500000284ED100294CD00C9B47B24FF0FF32D5
:102F600099F80740581899F8061002FA01F1CA4377
:102F700001EA0308104400EA010699F90400002858
:102F800009D40899B04534D2D8F80000B84228D105
:102F900008F10408F6E706950294464540F29D8044
:102FA000A6EB08044FF4807041465246B4F5807F8A
:102FB000A8BF0446D9F80000234645684846A847FC
:102FC000A010029C0021814205DA5AF8212001312B
:102FD000BA42F8D003E0069D08F58078DDE7069D4B
:102FE00008994FF0FF30A04018EA000418BFA6422D
:102FF00044D10B9EB00728D006950D4634460C9F51
:1030000001EB0708474517D24FF48076B5F5807F6E
:103010005046214638BF2E463246FDF7C7FCB3085E
:1030200058463946524600F097F8A5F5807504F5E4
:10303000807407F58077E5E70DF12008DDF818903A
:10304000DDE90B6498E8A0010AE00C9CA9468B100E
:103050000D4658463246214600F07EF8DDE90978F3
:103060005846214632462B46FFF7C5FD00284D46FF
:1030700037D4A8EB07083E443D44E5E6DBF80400FE
:1030800001232F460C9DDBF81420C1790669C06826
:1030900003FA01F130448BB259422940CD188542E0
:1030A00028BF431A58460832FFF748FE002803D4C9
:1030B000DBF81400083000E000203D46DDE9097827
:1030C0000B9E291B084431463A46FDF76FFCDBF89E
:1030D0001400059981800460CBE7089989E7019C79
:1030E00013E0044611E0DBF814006FF01D042946DC
:1030F0003A4603681748009405E06FF01D0405A0E8
:1031000029463A46234601F017FB20464DB0BDE85C
:10311000F08F00BFD0B4B4E6B4A228B5D8D6B73D7E
:10312000253038582CB3A4B6C83D256429CAB1BD92
:10313000ABCAFDBEDDD0B4C8EBBBBAB4E6C7F8CAB3
:10314000B1B3F6CFD6D2ECB3A3282564290A000088
:10315000100000201C5300082DE9F0470446007BB6
:1031600018B16FF01D00BDE8F0870D4661680120C1
:10317000174604221E4620738979023900FA01F9A4
:1031800002FA01F84FEA890A002E0ADD60683A4621
:1031900001688B68294698475744A6EB09064544C1
:1031A000F2E7606801680A69294690470028F8D16B
:1031B00000202073BDE8F0872848D0E902120131D1
:1031C00042F10002C0E90212704700BF70B5094920
:1031D000224B08684A68801AD3E902240D684E68B9
:1031E000AD1BA842F5D809684B1C04FB03F1E2FBB8
:1031F000030170BD14E000E0F8B5044617480B4E1B
:103200004AF6AA27008A4508AC420AD9284600F0A7
:103210000FF8F068C00701D1706800B13760641B17
:10322000F2E72046BDE8F84000F002B80030004068
:103230007CB50A496A46D1E90234C2E90034D2E9D0
:103240000034D1E90256C2E90056D2E90056ED1A1F
:10325000A6412D1A76F10005F3DB7CBD004F00205E
:103260002348016821F00701016001684907FCD18A
:10327000204850F8041C41F4803140F8041C50F8F8
:10328000041C8903FBD5016A41F001010162016A56
:103290008907FCD50168092262F31541016050F8E5
:1032A000041C41F0807140F8041C50F8041C890192
:1032B000FBD50168092262F307110222016001684F
:1032C00021F4E0610160016821F46051016001684E
:1032D00062F301010160016801F00C010829FAD1D3
:1032E000C64901220A70016841F4800101607047FB
:1032F0000020024004100240704700002DE9F84F02
:10330000804619484FF0000B002708F1080500F12E
:10331000080937BB28370BF1020A00244E46022C5D
:103320000BD03046FCF70AFF024630462946FCF730
:1033300019FF30B128360134F1E709F15009D346BD
:10334000E7E70BEB040009A151F82000D8F80010C2
:1033500081421ABFC8F800000120002040B2BDE839
:10336000F88FFF20FAE700BF00E00108193A0008D3
:10337000F45200088CB0A04CA04D206840F01D0015
:1033800020609F48A860206800F01D00029002980D
:10339000002001F093FEA246E860F0B140F2244024
:1033A00001F08CFE044620B996A04FF0006101F0B8
:1033B000C3F920461C21FDF7C0FF04F11C0004F2F4
:1033C00024429A49C4E904200020C4E9011005F10F
:1033D00010002146FEF7B0FF02E095A001F0AAFE22
:1033E000DFF860B24BF2CA10BBF81610814206D06B
:1033F0000021CBE90411CBE90211ABF816002878C3
:10340000914A43F67F61002818BF42F6DF611160E0
:1034100010688E495060072042F8040C0020C875DF
:103420004FF47A7110680130B0FBF1F0ABF8140082
:10343000FFF7CCFE044610260DF108092EB1FFF768
:10344000C5FEC9E90001013EF8E74FF6FF76ABF88B
:103450001060D9E90001001B0009ABF812006420DC
:10346000FFF7CAFE0027A84601204FF4A0710124EF
:1034700048F8347FC8E90177C8F80C70FCF781FE82
:10348000C8F80800DBE90212C9E90012D9E9001204
:1034900004736F4AC0E9011200F110014046FEF7C3
:1034A0004BFF02AC14212046FDF747FFDAF8040079
:1034B000214640F01000CAF80400DAF8040000F0D9
:1034C00010000190FF20CDE90376624EADF80800B0
:1034D00001983046FEF78AFE306820F080003060A8
:1034E000306840F008003060F06840F00100F060A3
:1034F0005648FFF7F0F838BF39460422042828BFA1
:1035000010464FF0FF3202FA00F0C04388405249A3
:10351000000108704C494FF48000C1F8F0000A2007
:10352000FFF76AFEFFF752FEDBE90223C4E900233E
:10353000D4E90023FDF709FA484E000A0FF2201AD9
:10354000C8F80C00662F26D0484631462822FDF7E1
:103550002DFA4846FFF7D2FE012819D14FF0040892
:10356000304649460422FFF7F9FBB0F1FF3F0FDC7C
:103570003168029A0346504601F0DEF8A8F10108CE
:10358000B8F1010FECD8444806F1080101F0D4F875
:1035900028360137D6E7FFF761FB0028FBD13F480B
:1035A0003F4EFFF7A4F83F48FFF7A1F83E48FFF76A
:1035B0009EF83E48FFF79BF83D48FFF798F805F165
:1035C000340631460F683146002FFBD0A7F11000BA
:1035D000A86117F8031C01293946F3D84168DBE9D3
:1035E0000223C4E90023D4E90023511A3946E9D45F
:1035F000806880473946E5E7181002401000002037
:1036000034520008CEAAB4E6B4A2BFE928B5D8D691
:10361000B73D2530385829C9EAC7EBB2D9D7F7BB2F
:10362000BAB4E6CAA7B0DC0A00000000A85200083D
:10363000C9EAC7EBB2D9D7F7CFEEBBBAB4E6CAA78F
:10364000B0DC0000004F002014E000E00CED00E0D2
:10365000D53C00080010004036E400E000A003085C
:10366000D0B4C8EBD4AACBD8B5D8D6B7CAB1CAA7FC
:10367000B0DCA3ACD4ADD6B53D25303858A3ACD022
:10368000C2D6B53D25303858A3ACD2ECB3A3C2F0B6
:103690003D25640A00000000A0530008AD39000871
:1036A000B93B0008B5360008FD3A0008FD380008AF
:1036B00089370008B0B586B01D4DA869006810B9FB
:1036C0001CA001F037FD204C20490F222046FFF7B7
:1036D00045FB2046FFF71EFB28B10DF101022146F4
:1036E0000F23FFF72BFB19480DF101010F22FCF707
:1036F0002CFD90B116A001F01DFD1C48A969C268FF
:10370000806804ABC3E90002D3E90002184A00F55F
:103710007A7048606FF0040007E016A001F00AFD1F
:10372000A96903200022487300200A6006B0B0BDDA
:1037300010000020B4E6B4A2C6F7B2E2CAD4C8CEE4
:10374000CEF1BFAACABC000000000108CF53000898
:10375000B4E6B4A2C6F7D0B4C8EBCAA7B0DCA3AC39
:1037600031C3EBBAF3D6D8CAD4000000004F002012
:10377000C6360008B4E6B4A2C6F7B2E2CAD4C8CED0
:10378000CEF1BDE1CAF80000FEB54A4EB06900684E
:10379000B8B187464849706A6B46CA688968C3E908
:1037A0000012D3E90012081A62F10001643871F1C5
:1037B000000047DB41A000F0BFFF6FF001000021D7
:1037C00074E0306A98B901202421FCF7DAFC044641
:1037D00020203E49002220723B48C4E900012046D7
:1037E0000021FEF71DFA20463462FEF751FA384CEC
:1037F000306A04222146FEF7D9FA36A000F09CFF79
:10380000374D0027042F05D0E15D284600F094FFD6
:103810000137F7E70A2001F087FC306A06F144011E
:103820000722FEF751FA1B3003D12E496FF0030037
:103830003CE021486A46C1688068C2E90001D2E9DB
:1038400000017062306A4169C1B10A798989914089
:10385000002913DD06F144010822FEF735FA22A003
:1038600000F06AFF1E4C0025082D10D0701990F84A
:103870004410204600F060FF0135F5E70E49B069BD
:103880006B46FEF73FFF0A3141601B490CE00A20FE
:1038900001F04AFC0849B0696B46FEF733FF42F27B
:1038A00010721144416013496FF00400B269116055
:1038B000FEBD00BF10000020004F0020493243B67B
:1038C000C1C8A1B3ACCAB100FC5100083C52000809
:1038D00044520008493243B7A2CBCD3E3E0000001F
:1038E000C45300081A380008493243B6C1C8A13C85
:1038F0003C000000EE370008943700081FB5224C4A
:103900002068C0071DD1206A20F0010020626846AF
:10391000FEF724FC6420E0620020DDE90112914200
:1039200088BF0120194902FA00F0B0FBF1F0A06253
:10393000206840F080002060206840F00100206096
:1039400000E0E06A206A40F001002062002060632D
:103950002068C00703D1206840F001002060E06AC1
:1039600041F28831322200FB021042F21071B0FBAA
:10397000F1F0606306A000F0DFFEF64803218069E5
:103980004173002004B010BD002C0140A08601004E
:1039900050574DC6F4B6AFB3C9B9A62CD5BCBFD5E8
:1039A000B1C83D353025250A00000000B0B592B001
:1039B000124DA869006858B91148FDF74DFD6C46D5
:1039C00000202146FDF7F2FD0EA0214600F0B4FED6
:1039D0000020022100F060FCB549A869CA68896826
:1039E00010ABC3E90012D3E900120A4A01F5FA71DB
:1039F000C0E900216FF0040012B0B0BD100000203B
:103A0000A0520008CFB5CDB3CAB1BCE4A3BA2573A8
:103A10000A000000D039000870B58EB00C46B0F135
:103A2000FF3F20DD207828B305AD1C212846FDF797
:103A300084FC05F1180005F1140105F1100205F1EF
:103A40000C0305F10806CDE90221CDE900630490DD
:103A50002B1D18A120462A46FCF7A2FB052813DAE5
:103A60006FF01E0023E01CA120462422FCF79EFFDD
:103A700023201CE000202146FDF798FD20460EB0D3
:103A8000BDE87040FCF75ABB05AB0FCB8DF8351085
:103A90008DF834200B99ADF83600D80661F3D43098
:103AA000099961F35A500C900CA8FDF7D5FC0EB0A3
:103AB00070BD00BF253034642D253032642D253093
:103AC000326420253032643A253032643A2530326F
:103AD000642E2530336400002323CAB1BCE4B8F15E
:103AE000CABDA3BA797979792D4D4D2D64642048EA
:103AF000483A6D6D3A73732E7A7A7A002DE9F8435D
:103B00001E4EB069006890B901202421FCF739FBF2
:103B100004461B481B490022C4E90010204600212E
:103B2000FEF7D4FE20460021F461FEF707FF6C4645
:103B30000FF26C080FF25009F0690121FEF7A6FFA1
:103B4000A8B1F06921464069FDF70CFC58B1009D11
:103B500007464846294600F0EFFDF06939462A46F7
:103B6000FFF716F8E8E7404601F0E4FAE4E7B06949
:103B7000104901606FF00300BDE8F88310000020D9
:103B800048520008C4510008B4AEBFDABDD3CAD54C
:103B9000B5BD2564D7D6BDDAB5C4CAFDBEDD0A0001
:103BA000CCE1C8A1B4AEBFDACAFDBEDDD2ECB3A38E
:103BB00000000000383B00082DE9FE43884605461A
:103BC000CAB1DFF8489B394F00216E460C1D0C2C02
:103BD00011D009EB010031463A4600953430FEF72A
:103BE000D0FB00282146F1D010F8011C41455BD0E4
:103BF000032100F8031C704E0120F16B102853D0F4
:103C00008A6812B101301431F8E70022284C8D6027
:103C1000087381F80F806D460A604A73D4E9020286
:103C2000C5E90002D5E90002486006EB88001031C2
:103C30003430FEF781FBB8F1000F35D0B16B1D4871
:103C400071B3D4E90223C5E90023D5E900326FF04E
:103C5000004259B151F80C4C1C1BB4F1FF3F05DC7C
:103C60006442A242A8BF22460968F2E7316CA1FB78
:103C70000234D21701FB02416FF000429C1A71F12D
:103C80000001B8BF1A46012AD8BF01224FF6FF71C2
:103C90008A4228BF0A46C262016841F0010102E07F
:103CA000016821F001010160BDE8FE83B93C000814
:103CB000004F002000100040096850F8082C8A428C
:103CC0001CBF0020704710F8030C033818BF0120F8
:103CD000704700002DE9F041DFF8308A0026022EFF
:103CE00035D008EB860454F8340F70B30168D1B1B5
:103CF000A1F110050746A5B1687B032806D120462F
:103D0000FEF74EFB28461421FDF717FB0025002087
:103D10000021002FEED03A68002AEBD0116810463F
:103D2000E8E73846E3E72568A5F1100169B14A7B69
:103D300008460021032AF9D11421FDF7FEFA204696
:103D40002946FEF72DFB0021F0E70136C7E70020EA
:103D5000BDE8F08110000020F8B5466905466F46C1
:103D600030463946FDF76DFD04460F3001D1FEF7B0
:103D7000ACFC012CF4DB287A009900F00F00042839
:103D80000BD20D4A02EB400214850D4A52F8200076
:103D90002246BDE8F84000F0CDB809D1054841639E
:103DA0000486054804860548016841F02001016049
:103DB000F8BD00BFB0000020100000200C500040F3
:103DC00070520008F8B545690446BDB116460A466A
:103DD00028460021FDF7E0FDEF89F80705D026B958
:103DE000284600210022FDF7D7FD206978B18268BE
:103DF0006AB1012020EA0701204605E0206930B1C0
:103E0000826822B120460121BDE8F8401047F8BD84
:103E10002DE9F84386690446F6B1174612688846CC
:103E200030460021FDF74CFDB0F1FF3F1DDD96F857
:103E30000E905FEAC97027D030464146FDF7FCFC82
:103E40003860C8B10546B0F1FF3F1EDC217A15A0ED
:103E50002A4600F071FC18E0206920B1C26812B156
:103E6000204601219047002518E00546217A1DA033
:103E70002A4600F061FC11E0304600214FF6FF7247
:103E80004FF00009FDF71CFD0025206930B1C26824
:103E900022B1012020EA0901204690472846BDE8CA
:103EA000F88300BFCDA8D0C5BFDA2564B0FCB7A2A7
:103EB000CDEAC1CBA3ACC7B0B0EBD6A1B3F6B6D3B5
:103EC000B3C9B9A6A3ACBAF3B0EBD6A1B3F6B6D3D7
:103ED000CAB1B3F6CFD6C1CBD2ECB3A3282564299F
:103EE0000A000000B6CBBFDA2564B0FCB7A2CDEA69
:103EF000C1CBA3ACB3F6B6D3CAB1B3F6CFD6C1CB60
:103F0000D2ECB3A3282564290A00000070B500F0A4
:103F10000F0014460D46FEF75FFC48B129462246C5
:103F20000646FFF74FFF3046BDE87040FFF714BF6D
:103F300070BD000010B50724634B072890FBF4F414
:103F400003F58063C4EBC404BCBF0823C4F20203BE
:103F5000001B00EB800003EB8004E160626053F81B
:103F6000201041F0010143F8201010BDF8B5354D87
:103F700002249446344A0728B8BF01242E6802F56B
:103F8000806726432E606FF00F062D682C4000944A
:103F9000072490FBF4F4C4EBC404041BA500072819
:103FA000BCBF0427C4F2020706FA05F5009E3E686E
:103FB000072805EA0605274E3D60244D4FF0FF37E0
:103FC000B8BF151D04EB84020C680B2845F822408D
:103FD000304C05EB820244F82030C2F808C000F1F2
:103FE000310208BF3B220728B8BF00F10B02184876
:103FF00002F00F0553B2043D1C18354404F540741B
:10400000002B48BF05F10C043568C5F30225EE1EF0
:1040100085F0070538BF0026042D28BF042509793F
:1040200007FA05F5A943B1400901002B217008D416
:1040300002F01F010123C2F3421203FA01F140F81A
:104040002210F8BD1410024004000240080402408F
:1040500000E100E00CED00E010B507210C4B0F2251
:10406000B0FBF1F11C68C1EBC101411A89008A4023
:1040700022400BD05C6814435C60064B53F8203040
:1040800023B122FA01F1BDE81040184710BD00BF6E
:10409000000002407000002007220B49072890FB17
:1040A000F2F201F58061C2EBC202BCBF0821C4F28A
:1040B0000201801A00EB800051F8202022F001025A
:1040C00041F82020704700BF08000240FBB110B546
:1040D0006B4C206840F020002060206840F04000D9
:1040E000206000F069F8216821F02001216060B9AA
:1040F0002068A52140F0100020600648018000F0F3
:104100005BF8206820F010002060BDE8104001201E
:10411000704700BF00F8FF1F01207047B0B50D4683
:10412000044600F033F80028FBD05548016841F000
:10413000020101604560016841F040010160012118
:10414000E07901FA00F0B0BD002070472B49086803
:10415000C2070ED10A6892060BD50A6842F0200207
:104160000A604A6822F037024A604A6842F08002D8
:104170004A6000F0010070470020704710B51046FB
:104180001A461C46FCF712FC204610BD0748C168C1
:10419000090608D50649016006490160C0680006A5
:1041A00044BF002070470120704700BF0420024038
:1041B00023016745AB89EFCD0F4910480268D2074C
:1041C00005D0013124BF6FF001007047F6E70168A8
:1041D000890648BF01680168026901F0100102F018
:1041E0000102891804BF00207047026822EA010119
:1041F00001604FF0FF307047010000F00C200240DA
:1042000070B5037A14460246480708BF032B06D050
:1042100008074FF0000008BF042B10D070BDD6680F
:10422000CD08705DFF2801D02078C0B9FFF7AEFF40
:104230001348FEF757FA20787055082070BDD668ED
:104240000D092488705BFF2818BF002C07D1FFF7E9
:104250009DFF0B48FEF746FA1020745370BD0020F6
:1042600070BD00BFB0B514460D46FFF78FFF044880
:10427000FEF738FA20882880608868800120B0BD69
:1042800010200240042190FBF1F0024951F8200077
:10429000704700BF080001404F281FD800F00F02F0
:1042A0000FA353F822203C2303EA90001CA3022909
:1042B000185806D001290ED081B9C2F30F214161EF
:1042C0007047C16801EA1223C94301EA122189B289
:1042D00041EA034101E0C2F30F210161704700BFD1
:1042E00001010000020200000404000008080000B0
:1042F00010100000202000004040000080800000DE
:10430000010001040200020404000404080008047F
:1043100010001004200020044000400480008004AD
:1043200000080140000C0140001001400014014051
:1043300000180140001C014000200140F0B585B08C
:10434000044601A80D46FDF709FF2068C00705D007
:10435000206810F4985FFBD1002020602149049868
:10436000214EB0FBF1F269686368771C4FF47A75EF
:1043700023F03F03134363604FF496735343B942F2
:1043800028BFB3FBF5F2236A013223F03F031A433F
:10439000B14222620AD901EB4101B0FBF1F0010503
:1043A00040F4004008BF48F2010007E04900B0FBBC
:1043B000F1F040F6FC71084208BF0420E1694CF6B8
:1043C000FF7291430843E061606840F400706060F0
:1043D000606840F480606060606840F48070606095
:1043E00005B0F0BD40420F00A086010010B5147862
:1043F00004F001042344094C24F8303004EBC003DA
:1044000000245A60064A5C8052F820402046FFF79C
:1044100095FF40F20150206010BD00BFA0000020B9
:104420009852000810B5B74A0024102C07D052F853
:104430002430834201D00134F7E7890700D410BD4E
:10444000FFF72AFEB148012200EB4400018D20460F
:10445000BDE81040FFF75ABDBCB52C4A0024102C13
:104460001ED052F82430834201D00134F7E7890787
:1044700016D5FFF711FE04F00F00FEF7ADF978B185
:104480000546008C6A46009001A92846FFF7C0FC4B
:10449000009A01282A8403DB0199204600F002F8E3
:1044A000BCBD00BFF8B514460D46042813D206461D
:1044B000164850F826703846FFF7EEFD904829461A
:1044C000224650F826606FF0400046F80C0B384644
:1044D000FFF730FD10E013D10A4E306820F00800DD
:1044E0003060306840F008003060074844868563DB
:1044F000306840F080003060306840F0400030604C
:10450000F8BD00BF0C500040B000002080520008F1
:104510007FB56E4605460C463046FDF71FFE681E09
:10452000042802D206F1080203E0002D65D106F14D
:104530000C027348324E50F82500C168C36823F45A
:104540000053C360192312685A4363689B00B2FB8F
:10455000F3F26423B2FBF3F505FB0622322606EBE9
:104560000212B2FBF3F202F00F0302F0F00202EBD0
:10457000051292B21A4482606278530902F007026F
:10458000022B06D0012B09D06BB9C36823F4C0639A
:1045900008E0C368022565F34A2302E0C36843F4D8
:1045A000C0630132C360052A05D0042A07D1C2685E
:1045B00022F4805202E0C26842F48052C260627803
:1045C000C2F3C102022A06D0012A08D062B90269E8
:1045D00022F4405207E0026942F4405203E00269CB
:1045E000022363F30D320261890403D5C16841F4EB
:1045F0000051C160002004B070BD0120FBE700BF86
:104600009CFFFF0F002000F007B8012000F004B865
:10461000022000F001B800007FB50446384850F889
:104620002460F06840061CD53068400619D56FF04C
:1046300040003060F06820F04000F06004F00F00AF
:10464000FEF7CAF868B1054600200390A86903A9DF
:10465000FCF792FE039A012A03DB01462846FEF787
:104660007BFAF068C00602D53068C00600D47FBD72
:10467000306810F00F051FD0306801900198706805
:104680000190204850F824000199FFF705FD04F03F
:104690000F00FEF7A1F80028E9D00446FFF75CFB05
:1046A00020690028E3D00269002AE0D0204629468C
:1046B00004B0BDE8704010473068072102900298AE
:1046C000706802900F4850F82400029A0E4A90FB3E
:1046D000F1F1C1EBC101411A01EB810152F8213026
:1046E00052F82150FFF7D8FC0848002200EB4400A4
:1046F000008D411B204604B0BDE87040FFF706BCAA
:10470000E0520008705200080C0002401000002027
:1047100002490A681206FCD5486070470050004004
:10472000FEF79EFDFDF79CFEFDF758FE0020FDF70D
:10473000A1FEFEF71FFE00000FB4054B10B503A944
:10474000044A029800F0F6F810BC5DF814FB000073
:1047500011470008000000200FB4084B10B504A951
:1047600002AA039800F0E6F8044602A9002000F02F
:1047700078FC204610BC5DF814FB00006350000874
:1047800002E008C8121F08C1002AFAD1704770471A
:10479000002001E001C1121F002AFBD17047000078
:1047A0002DE9FF5F82B00021DDE90430020DDDF864
:1047B00040B0034318D044F61050A2F2FF324243F7
:1047C0001514119801281FD0A5EB0B00401C5FEABF
:1047D000000A4FF000064E4FDFF83891B0465046C1
:1047E00015D5CAF1000413E0119801244AA3012849
:1047F00001D16FEA0B010298119AC0E90031C0E9BA
:10480000024206B0BDE8F09FCBF10000DFE70446AE
:104810000021404A491842EB0450CDE9001012E053
:10482000E00707D032463B4640464946FCF7B9F917
:104830008046894632463B4610461946FCF7B1F998
:1048400006460F466410002CEAD1DDE90401DDE9DB
:104850000023BAF1000F06DAFCF7A3F942464B46F3
:10486000FCF79FF905E0FCF70EFA42464B46FCF7D1
:104870000AFA04460E460022284BFCF797FA03D8A2
:104880004FF0FF30014607E00022254B204631461D
:10489000FCF7E0F8FCF772FA102409E0002C0ADBC0
:1048A0000A220023FCF720F8039B30321A55641EBD
:1048B00050EA0102F2D1641C039AC4F111031444BA
:1048C000119A012A03D0012208430DD10AE00843BE
:1048D00004D000204FF0110B119072E7A3EB0B05F1
:1048E0006D1E0DE05B4504DD4FF0000205F1010592
:1048F00004E003DA4FF00002A5F10105002AECD034
:1049000002981199C0E90231C0E9004579E7000039
:10491000000014400000F03F300000000000F043B1
:104920000000E03F30380A2801D201207047002003
:10493000704700002DE9FF4F95B09B46894606461B
:1049400000250FE2252877D100242746F84A0121C7
:10495000059400E0044316F8013F203B01FA03F000
:104960001042F7D130782A2811D06FF02F03307819
:10497000A0F13002092A16D8059A44F0020402EB8D
:10498000820203EB42021044761C0590EFE759F8CF
:10499000042B0592002A03DA504244F40054059097
:1049A00044F00204761C30782E2816D116F8010F38
:1049B00044F004042A280DD06FF02F023078A0F1C3
:1049C0003003092B09D807EB870302EB4303C71811
:1049D000761CF3E759F8047B761C30786C280FD0EE
:1049E00006DC4C2817D068280DD06A2814D104E0C2
:1049F000742810D07A280FD10DE044F400140AE096
:104A000044F4801401E044F440147278824202D1EC
:104A100004F58014761C761C307866280BD013DCE5
:104A2000582877D009DC002875D04528F6D04628CC
:104A3000F4D047281AD19DE118E0632835D06428C6
:104A400079D0652812D195E1702873D008DC6728E9
:104A5000F1D069286FD06E280DD06F2806D1B5E04F
:104A600073282CD0752875D0782874D05A46179999
:104A700090476D1C75E1C4F30250022809D0032849
:104A80000DD0D9F8001004280DD00D6009F10409EB
:104A900067E1D9F80010EA17C1E90052F6E7D9F842
:104AA00000100D80F2E70D70F0E719F8041B8DF887
:104AB000001000208DF80100EA46012003E059F8BB
:104AC00004AB4FF0FF3061074FF0000102D40DE05E
:104AD00008F101018846B9420FDA8045F8DB1AF87F
:104AE00008100029F4D108E008F10101884681424C
:104AF000FADB1AF808100029F6D105985B46A0EBFE
:104B0000080721463846179A00F094FA284400EB2B
:104B1000080507E04DE029E10DE01AF8010B5A46BF
:104B200017999047B8F10108F7D25B4621463846FD
:104B3000179A13E142E00A220092C4F302524FF0A6
:104B4000000A022A08D059F804CB032A4FEAEC7174
:104B50000AD00DE029E02AE009F1070121F007025F
:104B6000F2E802C1914609E00FFA8CFC4FEAEC71C1
:104B7000042A03D14FFA8CFC4FEAEC71002907DAC2
:104B80000A460021DCF1000C61EB02012D2202E05B
:104B9000220504D52B228DF80420012203E0E20730
:104BA00001D02022F7E7904659E00A2102E01022C6
:104BB0000DE010214FF0000A00910BE010224FF0A1
:104BC000000A44F004040827009203E008224FF092
:104BD000000A0092C4F30252022A05D059F804CB0D
:104BE0000021032A08D009E009F1070121F007029A
:104BF000F2E802C1914605E01FFA8CFC042A01D1BB
:104C00000CF0FF0C4FF00008220728D5702806D0C2
:104C1000009B83F0100353EA0A0305D00EE0402204
:104C20008DF80420012208E05CEA010206D030225F
:104C30008DF804208DF8050002229046009B83F039
:104C4000080353EA0A030AD15CEA010201D16207B0
:104C500005D530228DF804204FF001087F1E58281A
:104C600004D034A003900EA802900DE036A0F9E71E
:104C700053466046009AFBF737FE84460398825CF1
:104C80000298401E029002705CEA0100F0D1029886
:104C900006A9081A00F1200A600702D524F480341E
:104CA00000E00127574502DDA7EB0A0000E00020E5
:104CB00000EB0A01009005984144401A0590E0037A
:104CC00006D45B462146179A059800F0B3F90544CF
:104CD000002706E001A85A46C05D179990476D1C51
:104CE0007F1C4745F6DBE0030CD55B462146179A4F
:104CF000059800F09FF9054404E030205A461799C2
:104D000090476D1C0099481E00900029F5DC08E0D2
:104D1000029802995A460078491C029117999047C7
:104D20006D1CBAF10001AAF1010AF1DC65E1000095
:104D30000928010030313233343536373839616271
:104D40006364656600000000303132333435363735
:104D500038394142434445460000000000F058F90C
:104D60000544761C307800287FF4ECAD19B0284655
:104D7000BDE8F08F620700D4062709F1070222F090
:104D8000070CFCE80223E14603F000485FEA080C48
:104D900002D00FF2702C0DE05FEA045C02D50FF236
:104DA000682C07E05FEAC47C02D00FF2602C01E0BF
:104DB000AFF2700C4FF0FF3823F00043CDF850C035
:104DC00065280CD006DC452809D046281DD0472888
:104DD0003DD13DE0662818D067287ED138E000211B
:104DE000112F01DB112000E0781CCDE9000106A99C
:104DF0000EA8FFF7D5FCDDE90F010E9A0391002103
:104E0000009207F1010A04914DE04FF00040009735
:104E1000CDE9011006A90EA8FFF7C2FCDDE90F02DB
:104E200003920E9B11990022DDF80CA000930492CE
:104E300011B9791C00EB010AB7EB0A0004D4C0F1E8
:104E4000FF3007F1010A0490AAEB0700019044E04B
:104E5000012F00DA01270021112F01DD112000E0D0
:104E60003846CDE9000106A90EA8FFF799FCDDE957
:104E70000F010E9A0391002104910092BA46210776
:104E80000CD40399514500DA8A46BAF1010F05DDC9
:104E9000009AAAF10101515C302908D0B84202DA27
:104EA00010F1040F06DA0121CDE9011015E0AAF195
:104EB0000101E9E7002805DC049901440491AAEB0B
:104EC000000102E0411C514500DD8A460499401A68
:104ED000401C01904FF000400290200704D401983C
:104EE000504501DBCDF8048000208DF84F0002987A
:104EF0000DF14F07B0F1004F25D02B200E900298F6
:104F00004FF0020800280CDA404202902D200E904B
:104F100007E00A210298FBF7D1FC3031029007F834
:104F2000011DB8F10001A8F10108F2DC0298002887
:104F3000EFD1791E0E980870307800F0200040F014
:104F4000450007F8020D12A8C01B00F107081498CD
:104F5000007800B1012000EB0A01019801EBE0713B
:104F600005984144401A401E0590E00306D45B4674
:104F70002146179A059800F05DF8054414980078CA
:104F800018B15A46179990476D1CE00324D55B462B
:104F90002146179A059800F04DF805441CE0049846
:104FA000002807DBDDE90301884203DD0098405C4F
:104FB000179901E0179930205A469047049805F157
:104FC0000105401C04900198401E019004D12E2040
:104FD0005A46179990476D1CBAF10001AAF1010ACF
:104FE000DDDC05E017F8010B5A46179990476D1C58
:104FF000B8F10001A8F10108F4DC5B462146179ADC
:105000000598ABE62D0000002B00000020000000FA
:105010002DE9F041044600251E461746880404D4B5
:1050200005E039462020B0476D1C641EF9D528469E
:10503000BDE8F0812DE9F041044600251E4690466A
:10504000C80301D5302700E02027880404D505E0F7
:1050500041463846B0476D1C641EF9D52846BDE868
:10506000F0810A68531C0B601070704710B500285F
:1050700021D0114B0022001F196803E0814203D8A0
:105080000A4649680029F9D152B11368841A9C4232
:1050900004D1006818441060104602E0506000E03F
:1050A000186039B102680B1A934203D10B681A4495
:1050B00002604968416010BD04000020F0B50B306B
:1050C000154D20F007010024144A0FE003688B42BD
:1050D0000BD38B4205D95E1A43184768C3E90067B2
:1050E00000E04368136002C004E0021D106800285D
:1050F000ECD12046002802D1286808B10020F0BD7C
:10510000064A07481060074A121A22F00702C0E94F
:10511000002401202860D7E70800002004000020B8
:1051200014010020102100200149FFF7F1BA00000E
:105130000000002010B5044601E0FFF7E9FA14F87A
:10514000010B04490028F8D1BDE810400A20FFF700
:10515000DFBA000000000020DDDDDDDDDCBBBBDDF3
:10516000DDDDDDDDDDDDDDDD988888888888888807
:105170007777777777888888855555566666666627
:105180006666666666688888833333322222222206
:10519000222222222228888D851800087F190008E3
:1051A00099190008C11800084318000839180008A8
:1051B0006F180008331B000877180008F11A000860
:1051C000991A0008E8530008CD280008AD27000808
:1051D0003D290008352700087F2A0008912B000888
:1051E0008D2A0008F12B0008A5280008792A00085C
:1051F0002F270008F5270008652B0008DE5300085C
:10520000211C0008D51B0008911C0008851B000804
:10521000C91C0008AD1D0008551D0008151E00081A
:10522000051C0008C11C00087F1B0008011C0008A9
:10523000711D0008B9170008B117000820013800D7
:10524000A086010070AC33000004000000C2010021
:105250008200000002000000A60000000200000022
:105260009200000002000000B600000002000000F2
:10527000040000000500000002000000090000001A
:105280000300000006000000010000000B00000009
:1052900000000000010203040054004000580040D8
:1052A000000000880809E907BC52000801FF020A53
:1052B00004FF32000000000800000200494100081D
:1052C0007D410008654200081D4100084D4100086D
:1052D00001420008CD40000819410008794100084A
:1052E000003801400044004000480040004C0040AD
:1052F00000500040312E302E302E300000000000D3
:10530000000000000000000000000000000001009C
:105310001F1C1F1E1F1E1F1F1E1F1E1FD0B4B4E602
:10532000B4A228B5D8D6B73D253038582CB3A4B68A
:10533000C83D256429CAB1BDABBBBAB4E6C7F8B550
:10534000C4CAFDBEDDCBA2C8EBB4E6B4A2C7F82840
:10535000B5D8D6B73D2530385829CAB1B3F6CFD61F
:10536000D2ECB3A3282564290A00B7A2CBCDCAFD8D
:10537000BEDDD2D1BEADD5FDB3A3C8EBB6D3A3ACD1
:10538000C9EAC7EBB3F6B6D3BEC9CAFDBEDDCAB122
:10539000CAA7B0DC2CD2ECB3A3C2EB3D25640A0053
:1053A000B6E0B4CEB3A2CAD4D2C0C8BBCEDEB7A8D2
:1053B000D0B4C8EBD4AACBD828257329B5C4B5D8A6
:1053C000D6B70A00253032582000CAB1B4C100B4A3
:1053D000E6B4A2C6F7B2E2CAD4CAFDBEDD004932C5
:1053E00043B9DCC0EDC6F700B4AEBFDAB9DCC0ED3E
:1053F000C6F700001854000800000020100000004C
:1054000080470008285400081000002000290000F0
:1054100090470008000000000000000000000000AD
:08542000000000000000000084
:020000040801F1
:10E00000193A000800000000CFB5CDB3CAB1BCE496
:10E010000000000000000000000000000000000000
:10E020000000000000000000F452000800000000A2
:10E03000C8EDBCFEB0E6B1BE00000000000000006C
:10E0400000000000000000001800000000000000B8
:04000005080000ED02
:00000001FF
